{
  "contractName": "DefiProject",
  "abi": [
    {
      "inputs": [
        {
          "internalType": "address",
          "name": "_uniswap",
          "type": "address"
        }
      ],
      "stateMutability": "nonpayable",
      "type": "constructor"
    },
    {
      "inputs": [
        {
          "internalType": "address",
          "name": "token",
          "type": "address"
        },
        {
          "internalType": "uint256",
          "name": "amountIn",
          "type": "uint256"
        },
        {
          "internalType": "uint256",
          "name": "amountOutMin",
          "type": "uint256"
        },
        {
          "internalType": "uint256",
          "name": "deadline",
          "type": "uint256"
        }
      ],
      "name": "swapTokensForETH",
      "outputs": [],
      "stateMutability": "nonpayable",
      "type": "function"
    }
  ],
  "bytecode": "0x608060405234801561001057600080fd5b50604051610a52380380610a52833981810160405281019061003291906100db565b806000806101000a81548173ffffffffffffffffffffffffffffffffffffffff021916908373ffffffffffffffffffffffffffffffffffffffff16021790555050610108565b600080fd5b600073ffffffffffffffffffffffffffffffffffffffff82169050919050565b60006100a88261007d565b9050919050565b6100b88161009d565b81146100c357600080fd5b50565b6000815190506100d5816100af565b92915050565b6000602082840312156100f1576100f0610078565b5b60006100ff848285016100c6565b91505092915050565b61093b806101176000396000f3fe608060405234801561001057600080fd5b506004361061002b5760003560e01c8063fde28bb114610030575b600080fd5b61004a6004803603810190610045919061047b565b61004c565b005b8373ffffffffffffffffffffffffffffffffffffffff166323b872dd3330866040518463ffffffff1660e01b815260040161008993929190610500565b602060405180830381600087803b1580156100a357600080fd5b505af11580156100b7573d6000803e3d6000fd5b505050506040513d601f19601f820116820180604052508101906100db919061056f565b506000600267ffffffffffffffff8111156100f9576100f861059c565b5b6040519080825280602002602001820160405280156101275781602001602082028036833780820191505090505b509050848160008151811061013f5761013e6105cb565b5b602002602001019073ffffffffffffffffffffffffffffffffffffffff16908173ffffffffffffffffffffffffffffffffffffffff168152505060008054906101000a900473ffffffffffffffffffffffffffffffffffffffff1673ffffffffffffffffffffffffffffffffffffffff1663ad5c46486040518163ffffffff1660e01b815260040160206040518083038186803b1580156101df57600080fd5b505afa1580156101f3573d6000803e3d6000fd5b505050506040513d601f19601f82011682018060405250810190610217919061060f565b8160018151811061022b5761022a6105cb565b5b602002602001019073ffffffffffffffffffffffffffffffffffffffff16908173ffffffffffffffffffffffffffffffffffffffff16815250508473ffffffffffffffffffffffffffffffffffffffff1663095ea7b360008054906101000a900473ffffffffffffffffffffffffffffffffffffffff16866040518363ffffffff1660e01b81526004016102c092919061063c565b602060405180830381600087803b1580156102da57600080fd5b505af11580156102ee573d6000803e3d6000fd5b505050506040513d601f19601f82011682018060405250810190610312919061056f565b5060008054906101000a900473ffffffffffffffffffffffffffffffffffffffff1673ffffffffffffffffffffffffffffffffffffffff166318cbafe585858433876040518663ffffffff1660e01b8152600401610374959493929190610723565b600060405180830381600087803b15801561038e57600080fd5b505af11580156103a2573d6000803e3d6000fd5b505050506040513d6000823e3d601f19601f820116820180604052508101906103cb91906108bc565b505050505050565b6000604051905090565b600080fd5b600080fd5b600073ffffffffffffffffffffffffffffffffffffffff82169050919050565b6000610412826103e7565b9050919050565b61042281610407565b811461042d57600080fd5b50565b60008135905061043f81610419565b92915050565b6000819050919050565b61045881610445565b811461046357600080fd5b50565b6000813590506104758161044f565b92915050565b60008060008060808587031215610495576104946103dd565b5b60006104a387828801610430565b94505060206104b487828801610466565b93505060406104c587828801610466565b92505060606104d687828801610466565b91505092959194509250565b6104eb81610407565b82525050565b6104fa81610445565b82525050565b600060608201905061051560008301866104e2565b61052260208301856104e2565b61052f60408301846104f1565b949350505050565b60008115159050919050565b61054c81610537565b811461055757600080fd5b50565b60008151905061056981610543565b92915050565b600060208284031215610585576105846103dd565b5b60006105938482850161055a565b91505092915050565b7f4e487b7100000000000000000000000000000000000000000000000000000000600052604160045260246000fd5b7f4e487b7100000000000000000000000000000000000000000000000000000000600052603260045260246000fd5b60008151905061060981610419565b92915050565b600060208284031215610625576106246103dd565b5b6000610633848285016105fa565b91505092915050565b600060408201905061065160008301856104e2565b61065e60208301846104f1565b9392505050565b600081519050919050565b600082825260208201905092915050565b6000819050602082019050919050565b61069a81610407565b82525050565b60006106ac8383610691565b60208301905092915050565b6000602082019050919050565b60006106d082610665565b6106da8185610670565b93506106e583610681565b8060005b838110156107165781516106fd88826106a0565b9750610708836106b8565b9250506001810190506106e9565b5085935050505092915050565b600060a08201905061073860008301886104f1565b61074560208301876104f1565b818103604083015261075781866106c5565b905061076660608301856104e2565b61077360808301846104f1565b9695505050505050565b600080fd5b6000601f19601f8301169050919050565b61079c82610782565b810181811067ffffffffffffffff821117156107bb576107ba61059c565b5b80604052505050565b60006107ce6103d3565b90506107da8282610793565b919050565b600067ffffffffffffffff8211156107fa576107f961059c565b5b602082029050602081019050919050565b600080fd5b60008151905061081f8161044f565b92915050565b6000610838610833846107df565b6107c4565b9050808382526020820190506020840283018581111561085b5761085a61080b565b5b835b8181101561088457806108708882610810565b84526020840193505060208101905061085d565b5050509392505050565b600082601f8301126108a3576108a261077d565b5b81516108b3848260208601610825565b91505092915050565b6000602082840312156108d2576108d16103dd565b5b600082015167ffffffffffffffff8111156108f0576108ef6103e2565b5b6108fc8482850161088e565b9150509291505056fea2646970667358221220f0c7f087ffd10df6f61d086197bd35c17c473bc71bfe00150eded5f1fb7ab7ba64736f6c63430008080033",
  "immutableReferences": {},
  "source": "pragma solidity 0.8.8;\r\n\r\ninterface IUniswap {\r\n        function swapExactTokensForETH(uint amountIn,\r\n         uint amountOutMin,\r\n         address[] calldata path,\r\n         address to,\r\n         uint deadline)\r\n        external\r\n        returns (uint[] memory amounts);\r\n        function WETH() external pure returns (address);\r\n}\r\n\r\ninterface IERC20 {\r\n        function transferFrom(\r\n        address from,\r\n        address to,\r\n        uint256 amount\r\n    ) external returns (bool);\r\n\r\n    function approve(address spender, uint256 amount) external returns (bool);\r\n}\r\n\r\ncontract DefiProject {\r\n    IUniswap uniswap;\r\n\r\n    constructor(address _uniswap) {\r\n        uniswap= IUniswap(_uniswap);\r\n    }\r\n\r\n    function swapTokensForETH(\r\n        address token,\r\n        uint256 amountIn,\r\n        uint256 amountOutMin,\r\n        uint deadline\r\n        ) external {\r\n            IERC20(token).transferFrom(msg.sender, address(this), amountIn);\r\n            address[] memory path = new address[](2);\r\n            path[0] = token;\r\n            path[1] = uniswap.WETH();\r\n            IERC20(token).approve(address(uniswap), amountIn);\r\n            uniswap.swapExactTokensForETH(\r\n                amountIn,\r\n                amountOutMin,\r\n                path,\r\n                msg.sender,\r\n                deadline\r\n            );\r\n        }\r\n}",
  "sourcePath": "E:\\dishonored 2\\Blockchain\\Project\\blockchain\\Uniswap V2 intergration\\contracts\\DefiIntergration.sol",
  "compiler": {
    "name": "solc",
    "version": "0.8.8+commit.dddeac2f.Emscripten.clang"
  },
  "schemaVersion": "3.4.4",
  "updatedAt": "2022-06-19T17:50:17.814Z",
  "devdoc": {
    "kind": "dev",
    "methods": {},
    "version": 1
  },
  "userdoc": {
    "kind": "user",
    "methods": {},
    "version": 1
  }
}